{
  "_format": "hh3-artifact-1",
  "contractName": "Voting",
  "sourceName": "contracts/Voting.sol",
  "abi": [
    {
      "inputs": [],
      "stateMutability": "nonpayable",
      "type": "constructor"
    },
    {
      "anonymous": false,
      "inputs": [
        {
          "indexed": true,
          "internalType": "uint256",
          "name": "pollId",
          "type": "uint256"
        },
        {
          "indexed": true,
          "internalType": "address",
          "name": "closedBy",
          "type": "address"
        }
      ],
      "name": "PollClosed",
      "type": "event"
    },
    {
      "anonymous": false,
      "inputs": [
        {
          "indexed": true,
          "internalType": "uint256",
          "name": "pollId",
          "type": "uint256"
        },
        {
          "indexed": false,
          "internalType": "string",
          "name": "title",
          "type": "string"
        },
        {
          "indexed": false,
          "internalType": "uint64",
          "name": "startTime",
          "type": "uint64"
        },
        {
          "indexed": false,
          "internalType": "uint64",
          "name": "endTime",
          "type": "uint64"
        },
        {
          "indexed": true,
          "internalType": "address",
          "name": "creator",
          "type": "address"
        }
      ],
      "name": "PollCreated",
      "type": "event"
    },
    {
      "anonymous": false,
      "inputs": [
        {
          "indexed": true,
          "internalType": "uint256",
          "name": "pollId",
          "type": "uint256"
        },
        {
          "indexed": true,
          "internalType": "uint256",
          "name": "optionId",
          "type": "uint256"
        },
        {
          "indexed": true,
          "internalType": "address",
          "name": "voter",
          "type": "address"
        }
      ],
      "name": "Voted",
      "type": "event"
    },
    {
      "inputs": [
        {
          "internalType": "uint256",
          "name": "pollId",
          "type": "uint256"
        }
      ],
      "name": "closePoll",
      "outputs": [],
      "stateMutability": "nonpayable",
      "type": "function"
    },
    {
      "inputs": [
        {
          "internalType": "string",
          "name": "title",
          "type": "string"
        },
        {
          "internalType": "string",
          "name": "description",
          "type": "string"
        },
        {
          "internalType": "string[]",
          "name": "options",
          "type": "string[]"
        },
        {
          "internalType": "uint64",
          "name": "startTime",
          "type": "uint64"
        },
        {
          "internalType": "uint64",
          "name": "endTime",
          "type": "uint64"
        }
      ],
      "name": "createPoll",
      "outputs": [
        {
          "internalType": "uint256",
          "name": "",
          "type": "uint256"
        }
      ],
      "stateMutability": "nonpayable",
      "type": "function"
    },
    {
      "inputs": [
        {
          "internalType": "uint256",
          "name": "pollId",
          "type": "uint256"
        }
      ],
      "name": "getPoll",
      "outputs": [
        {
          "internalType": "string",
          "name": "title",
          "type": "string"
        },
        {
          "internalType": "string",
          "name": "description",
          "type": "string"
        },
        {
          "internalType": "string[]",
          "name": "options",
          "type": "string[]"
        },
        {
          "internalType": "uint256[]",
          "name": "votes",
          "type": "uint256[]"
        },
        {
          "internalType": "uint64",
          "name": "startTime",
          "type": "uint64"
        },
        {
          "internalType": "uint64",
          "name": "endTime",
          "type": "uint64"
        },
        {
          "internalType": "bool",
          "name": "active",
          "type": "bool"
        },
        {
          "internalType": "address",
          "name": "creator",
          "type": "address"
        }
      ],
      "stateMutability": "view",
      "type": "function"
    },
    {
      "inputs": [
        {
          "internalType": "uint256",
          "name": "pollId",
          "type": "uint256"
        },
        {
          "internalType": "address",
          "name": "voter",
          "type": "address"
        }
      ],
      "name": "hasAddressVoted",
      "outputs": [
        {
          "internalType": "bool",
          "name": "",
          "type": "bool"
        }
      ],
      "stateMutability": "view",
      "type": "function"
    },
    {
      "inputs": [
        {
          "internalType": "uint256",
          "name": "",
          "type": "uint256"
        },
        {
          "internalType": "address",
          "name": "",
          "type": "address"
        }
      ],
      "name": "hasVoted",
      "outputs": [
        {
          "internalType": "bool",
          "name": "",
          "type": "bool"
        }
      ],
      "stateMutability": "view",
      "type": "function"
    },
    {
      "inputs": [],
      "name": "owner",
      "outputs": [
        {
          "internalType": "address",
          "name": "",
          "type": "address"
        }
      ],
      "stateMutability": "view",
      "type": "function"
    },
    {
      "inputs": [],
      "name": "totalPolls",
      "outputs": [
        {
          "internalType": "uint256",
          "name": "",
          "type": "uint256"
        }
      ],
      "stateMutability": "view",
      "type": "function"
    },
    {
      "inputs": [
        {
          "internalType": "uint256",
          "name": "pollId",
          "type": "uint256"
        },
        {
          "internalType": "uint256",
          "name": "optionId",
          "type": "uint256"
        }
      ],
      "name": "vote",
      "outputs": [],
      "stateMutability": "nonpayable",
      "type": "function"
    }
  ],
  "bytecode": "0x6080604052348015600e575f5ffd5b505f80546001600160a01b031916331790556112228061002d5f395ff3fe608060405234801561000f575f5ffd5b5060043610610085575f3560e01c80639534e637116100585780639534e63714610133578063a2eeeb2f14610148578063b384abef1461015a578063d08226451461016d575f5ffd5b80631a8cbcaa1461008957806343859632146100b9578063736faeec146100f65780638da5cb5b14610109575b5f5ffd5b61009c610097366004610c49565b610180565b6040516100b0989796959493929190610cc8565b60405180910390f35b6100e66100c7366004610da5565b600260209081525f928352604080842090915290825290205460ff1681565b60405190151581526020016100b0565b6100e6610104366004610da5565b610476565b5f5461011b906001600160a01b031681565b6040516001600160a01b0390911681526020016100b0565b610146610141366004610c49565b6104c6565b005b6001545b6040519081526020016100b0565b610146610168366004610dde565b6105dc565b61014c61017b366004610ec8565b61083f565b6060806060805f5f5f5f60018054905089106101b75760405162461bcd60e51b81526004016101ae90611006565b60405180910390fd5b5f60018a815481106101cb576101cb61102e565b5f918252602090912060069091020160048101546005820154825492935083926001840192600285019260038601926001600160401b0380841693600160401b810490911692600160801b90910460ff16916001600160a01b0390911690889061023490611042565b80601f016020809104026020016040519081016040528092919081815260200182805461026090611042565b80156102ab5780601f10610282576101008083540402835291602001916102ab565b820191905f5260205f20905b81548152906001019060200180831161028e57829003601f168201915b505050505097508680546102be90611042565b80601f01602080910402602001604051908101604052809291908181526020018280546102ea90611042565b80156103355780601f1061030c57610100808354040283529160200191610335565b820191905f5260205f20905b81548152906001019060200180831161031857829003601f168201915b5050505050965085805480602002602001604051908101604052809291908181526020015f905b82821015610404578382905f5260205f2001805461037990611042565b80601f01602080910402602001604051908101604052809291908181526020018280546103a590611042565b80156103f05780601f106103c7576101008083540402835291602001916103f0565b820191905f5260205f20905b8154815290600101906020018083116103d357829003601f168201915b50505050508152602001906001019061035c565b5050505095508480548060200260200160405190810160405280929190818152602001828054801561045357602002820191905f5260205f20905b81548152602001906001019080831161043f575b505050505094509850985098509850985098509850985050919395975091939597565b6001545f9083106104995760405162461bcd60e51b81526004016101ae90611006565b505f8281526002602090815260408083206001600160a01b038516845290915290205460ff165b92915050565b5f546001600160a01b0316331461050b5760405162461bcd60e51b81526020600482015260096024820152683737ba16b7bbb732b960b91b60448201526064016101ae565b600154811061052c5760405162461bcd60e51b81526004016101ae90611006565b5f600182815481106105405761054061102e565b905f5260205f20906006020190508060040160109054906101000a900460ff1661059d5760405162461bcd60e51b815260206004820152600e60248201526d185b1c9958591e4b58db1bdcd95960921b60448201526064016101ae565b60048101805460ff60801b19169055604051339083907f5f9f4b9200056c29dcdf9532acb77e0d5368e9f85580b6e1aeff24c36bddea2b905f90a35050565b60015482106105fd5760405162461bcd60e51b81526004016101ae90611006565b5f600183815481106106115761061161102e565b905f5260205f20906006020190508060040160109054906101000a900460ff1661066b5760405162461bcd60e51b815260206004820152600b60248201526a1c1bdb1b0b58db1bdcd95960aa1b60448201526064016101ae565b600281015482106106ab5760405162461bcd60e51b815260206004820152600a6024820152693130b216b7b83a34b7b760b11b60448201526064016101ae565b5f83815260026020908152604080832033845290915290205460ff16156107045760405162461bcd60e51b815260206004820152600d60248201526c185b1c9958591e4b5d9bdd1959609a1b60448201526064016101ae565b60048101546001600160401b031642101561074f5760405162461bcd60e51b815260206004820152600b60248201526a1b9bdd0b5cdd185c9d195960aa1b60448201526064016101ae565b6004810154600160401b90046001600160401b0316156107ba576004810154600160401b90046001600160401b03164211156107ba5760405162461bcd60e51b815260206004820152600a6024820152691c1bdb1b0b595b99195960b21b60448201526064016101ae565b60018160030183815481106107d1576107d161102e565b905f5260205f20015f8282546107e7919061108e565b90915550505f838152600260209081526040808320338085529252808320805460ff19166001179055519091849186917fd91ecafccf238642dccd41161308b3eebe62a12bc5819daf5164780c221ec95b91a4505050565b5f5f8651116108815760405162461bcd60e51b815260206004820152600e60248201526d1d1a5d1b194b5c995c5d5a5c995960921b60448201526064016101ae565b6002845110156108c45760405162461bcd60e51b815260206004820152600e60248201526d6e6565642d322d6f7074696f6e7360901b60448201526064016101ae565b826001600160401b03165f036108d8574292505b6001600160401b0382161561093a57826001600160401b0316826001600160401b03161161093a5760405162461bcd60e51b815260206004820152600f60248201526e195b990b58599d195c8b5cdd185c9d608a1b60448201526064016101ae565b5f84516001600160401b0381111561095457610954610dfe565b60405190808252806020026020018201604052801561097d578160200160208202803683370190505b50604080516101008101825289815260208101899052908101879052606081018290526001600160401b038087166080830152851660a0820152600160c082018190523360e0830152805480820182555f919091528151929350909160069091027fb10e2d527612073b26eecdfd717e6a320cf44b4afac2b0732d9fcbe2b7fa0cf601908190610a0d90826110ed565b5060208201516001820190610a2290826110ed565b5060408201518051610a3e916002840191602090910190610b46565b5060608201518051610a5a916003840191602090910190610b9a565b50608082015160048201805460a085015160c08601511515600160801b0260ff60801b196001600160401b03928316600160401b026fffffffffffffffffffffffffffffffff199094169290951691909117919091179290921691909117905560e090910151600590910180546001600160a01b039092166001600160a01b0319909216919091179055600180545f91610af3916111a7565b9050336001600160a01b0316817feac3f20370f7b67194902fef7af70c0e18f02358fc4b5671d214410fd0a46aea8a8888604051610b33939291906111ba565b60405180910390a3979650505050505050565b828054828255905f5260205f20908101928215610b8a579160200282015b82811115610b8a5782518290610b7a90826110ed565b5091602001919060010190610b64565b50610b96929150610bdf565b5090565b828054828255905f5260205f20908101928215610bd3579160200282015b82811115610bd3578251825591602001919060010190610bb8565b50610b96929150610bfb565b80821115610b96575f610bf28282610c0f565b50600101610bdf565b5b80821115610b96575f8155600101610bfc565b508054610c1b90611042565b5f825580601f10610c2a575050565b601f0160209004905f5260205f2090810190610c469190610bfb565b50565b5f60208284031215610c59575f5ffd5b5035919050565b5f81518084528060208401602086015e5f602082860101526020601f19601f83011685010191505092915050565b5f8151808452602084019350602083015f5b82811015610cbe578151865260209586019590910190600101610ca0565b5093949350505050565b61010081525f610cdc61010083018b610c60565b8281036020840152610cee818b610c60565b9050828103604084015280895180835260208301915060208160051b84010160208c015f5b83811015610d4557601f19868403018552610d2f838351610c60565b6020958601959093509190910190600101610d13565b50508581036060870152610d59818c610c8e565b945050505050610d7460808301876001600160401b03169052565b6001600160401b039490941660a082015291151560c08301526001600160a01b031660e09091015295945050505050565b5f5f60408385031215610db6575f5ffd5b8235915060208301356001600160a01b0381168114610dd3575f5ffd5b809150509250929050565b5f5f60408385031215610def575f5ffd5b50508035926020909101359150565b634e487b7160e01b5f52604160045260245ffd5b604051601f8201601f191681016001600160401b0381118282101715610e3a57610e3a610dfe565b604052919050565b5f82601f830112610e51575f5ffd5b81356001600160401b03811115610e6a57610e6a610dfe565b610e7d601f8201601f1916602001610e12565b818152846020838601011115610e91575f5ffd5b816020850160208301375f918101602001919091529392505050565b80356001600160401b0381168114610ec3575f5ffd5b919050565b5f5f5f5f5f60a08688031215610edc575f5ffd5b85356001600160401b03811115610ef1575f5ffd5b610efd88828901610e42565b95505060208601356001600160401b03811115610f18575f5ffd5b610f2488828901610e42565b94505060408601356001600160401b03811115610f3f575f5ffd5b8601601f81018813610f4f575f5ffd5b80356001600160401b03811115610f6857610f68610dfe565b8060051b610f7860208201610e12565b9182526020818401810192908101908b841115610f93575f5ffd5b6020850192505b83831015610fd85782356001600160401b03811115610fb7575f5ffd5b610fc68d602083890101610e42565b83525060209283019290910190610f9a565b8097505050505050610fec60608701610ead565b9150610ffa60808701610ead565b90509295509295909350565b6020808252600e908201526d1c1bdb1b0b5b9bdd0b599bdd5b9960921b604082015260600190565b634e487b7160e01b5f52603260045260245ffd5b600181811c9082168061105657607f821691505b60208210810361107457634e487b7160e01b5f52602260045260245ffd5b50919050565b634e487b7160e01b5f52601160045260245ffd5b808201808211156104c0576104c061107a565b601f8211156110e857805f5260205f20601f840160051c810160208510156110c65750805b601f840160051c820191505b818110156110e5575f81556001016110d2565b50505b505050565b81516001600160401b0381111561110657611106610dfe565b61111a816111148454611042565b846110a1565b6020601f82116001811461114c575f83156111355750848201515b5f19600385901b1c1916600184901b1784556110e5565b5f84815260208120601f198516915b8281101561117b578785015182556020948501946001909201910161115b565b508482101561119857868401515f19600387901b60f8161c191681555b50505050600190811b01905550565b818103818111156104c0576104c061107a565b606081525f6111cc6060830186610c60565b6001600160401b039485166020840152929093166040909101529291505056fea26469706673582212202e1f909a2b2ad5c4e075e1587b37d922f5502d34a9508ffc1f787fdb787fd33b64736f6c634300081c0033",
  "linkReferences": {},
  "deployedLinkReferences": {},
  "immutableReferences": {},
  "inputSourceName": "project/contracts/Voting.sol",
  "buildInfoId": "solc-0_8_28-630b22c4e6b850eccdfced81358a9b8fcc33c966"
}